:100000000868042019650200195F0200ED6402000F
:10001000ED640200ED640200ED640200ED64020094
:100020000000000000000000000000001560020059
:10003000ED64020000000000A95F0200ED64020010
:10004000B9600200B9600200B9600200B960020044
:10005000B9600200B9600200B9600200B960020034
:10006000B9600200B9600200B9600200B960020024
:10007000B9600200B9600200B9600200B960020014
:10008000B9600200B9600200B9600200B960020004
:10009000B9600200B9600200B9600200B9600200F4
:1000A000B9600200B9600200B9600200B9600200E4
:1000B000B9600200B9600200B9600200B9600200D4
:1000C000B9600200B9600200B9600200B9600200C4
:1000D000B9600200B9600200B9600200B9600200B4
:1000E000B9600200B9600200B9600200B9600200A4
:1000F000B9600200B9600200B9600200B960020094
:10010000B9600200B9600200B9600200B960020083
:10011000B9600200B9600200B9600200B960020073
:10012000B9600200B9600200B9600200B960020063
:10013000B9600200B9600200B9600200B960020053
:10014000B9600200B9600200B9600200B960020043
:04015000B960020090
:04015400FFFFFFFFAB
:100158002DE9F04F8FB04FF00008189E0393154615
:1001680083460C4686F8008000F67821262204A8EB
:100178007AF0D8FF65BB0C238BF8EB5A337004A9CF
:10018800584602F00BFC002840F01D8196F900004B
:10019800002847DBB44DB54F002303E05C1C1A2C44
:1001A80023463FD045FA03F2D207F7D5DA5D0EA908
:1001B80001EB420002F23B5130F82A2C3BF81110B7
:1001C8005C1C91425846E1B2E9D002F0BFFDE6E777
:1001D80023795F1EFBB2012B33D9002304EBC5053D
:1001E8008BF8EB3A9A4611E09F4A1A41D10710D58D
:1001F800012202FA03F313EA0A0900F09D80F323AF
:1002080033700834AC4209D023795F1EFBB2192B36
:10021800EAD908340A23AC423370F5D196F9003094
:10022800002BACDA039B1B78072B21D8F123337002
:1002380000230193039B1A46019B13700FB0BDE87E
:10024800F08F2068002101F077FA0028C5D0BDF8AA
:10025800102047F230539A4200F0F380BDF8122084
:100268009A4200F0EE800B23CDF804803370E1E76A
:100278000026DFF804927C4DDFF808A20196344688
:10028800CDF800B002E00134182CD3D0012303FAD2
:1002980004F7774B1F42F6D0019B199A0133DBB262
:1002A8000193013B02EBC308013488F8044000269F
:1002B80042F83390029414E0F35C009A03F23B5343
:1002C80032F813004FF6FF73984207D001F04CF84C
:1002D8000146684801F050F9C8F8000001361A2EA6
:1002E80028D045FA06F3DB07F8D55AF826301F421E
:1002F8004946F3D0D8F800B0584601F01DFA5B4BD8
:100308000028D9D1F25C009B02F23B5233F812006C
:1003180001F02AF80146574801F02EF90446214613
:10032800584601F013FA0028D8D001361A2EC8F81A
:100338000040D6D1029CA7E72768002138464AEA40
:10034800030A01F0F9F940B3F62333702768002156
:10035800384601F0F1F9B846F8B10021404601F0FD
:1003680013FA002831D14046002101F0E5F9B0FA2E
:1003780080F35B095B429FB296F90030002B7FF453
:1003880040AF3A4B1A46237913440EAA13F8013C9E
:1003980002EB430323F82A7C33E73749384601F058
:1003A800CBF900284BD13549384601F0EDF928B989
:1003B8003349384601F0CAF900284CD0F22333708B
:1003C800D4F80080C9E73070E2E62B49404601F0D6
:1003D800BDF90028C7D04146264801F0CDF878F08D
:1003E80035FD01F001FA214B009387B2009A237979
:1003F800134413F8013C4B4403F2A74309F11309D2
:100408003BF81380404600F049FB15A3D3E90023CD
:1004180000F0BEFB07F0E6F800F07CFE83B2A8EB24
:100428000302984493B2BB421FFA88F801D8B84532
:10043800A2D2B9F1720FD9D1F4233370E1E6B846EC
:1004480091E79BF9BB3A002B7FF4F1AE01220193AF
:100458008BF8BA2AEEE6B8467FE700BFAFF3008014
:100468007B14AE47E17A843FEF79F20388620D008E
:100478000F20E0000000C84200FF7F470000204135
:100488000E74DA3A20620D0030B409241549164A70
:10049800164D0470164C416002611649164A4561B2
:1004A8008461164D164C416282621649164AC5622D
:1004B8008463164D164CC16302641649C564002254
:1004C8006FF0004504654FF0FF34C0E9164501663A
:1004D80030BC8260C260C2610262026342634264ED
:1004E8008264704707F0963D1C7CE13D3480D73F1D
:1004F8000000A040CDCC0C3E67D5273EE63F4CC05F
:1005080091ED3CBFFB3A403FB15083405DFEE33E76
:10051800363C85BF000040402DE9F04786B004AB6B
:1005280005AE04460078CDE900360DF10F030D46FF
:1005380007F01CF89DF90F00E0B94FF0010A04F12B
:10054800400904F12C0804F118075FFA8AF3013B0B
:10055800032B24D8DFE803F01D1711024A46314661
:10056800284604F025FA0AF1010ABAF1060FECD17F
:100578009DF90F0006B0BDE8F0874246314628468F
:1005880004F016FAEFE73A463146284604F010FA26
:10059800E9E7221D3146284604F00AFAE3E7314626
:1005A800284603F09FFF2066DDE700BF2DE9F047EE
:1005B80082B0DDE90A9ABDF83040B4F5E16F05462E
:1005C800884617461E466FD028D941F270739C4260
:1005D8002ED047F230539C4208BF012408D1D5E9F8
:1005E80016014FF0FF326FF0004307F0BBF808B375
:1005F80000244FF0FF326FF000433846314607F0D1
:10060800B1F808B9C5E916762146404600F0F6FD6E
:100618000D9900F0F3FD02B0BDE8F087642C05D019
:10062800B4F5967F08BF0424D9D0E1E70524D6E7BE
:100638000224D4E7D5E91601B9EB00006AEB010101
:1006480000F078FA1AA3D3E9002300F0CBFB0B469D
:100658000246CDE900230FFA84F900F07BFD05EB93
:10066800840455F82910824600F0D2FE616900F032
:10067800C7FDA16A8146504600F0CAFEDDE90023A5
:1006880082461946104600F083FA00F063FD0146E1
:10069800504600F0B5FDE16B00F0B2FD014648465A
:1006A80000F06AFF0446A4E7046EA2E7AFF30080F7
:1006B8000000000065CDCD412DE9F04784B0074624
:1006C8009046007805240DF107020D468DF8074085
:1006D80006F07AFF9DF8076003902EB3012407F116
:1006E800400A07F12C09E3B2013B042B0AD8DFE8E2
:1006F80003F03B0F342D0300386E03AB4246294606
:1007080003F00EFFA64204F101030CD01C46EAE7F1
:1007180003AB4246294607F1180004F0ABF8A6429D
:1007280004F10103F2D10398ADF80A0002220DF199
:100738000A0102A87AF0F6FC9DF808209DF8093015
:1007480003982A706B7004B0BDE8F08703AB42468B
:100758002946504604F08EF8D4E703AB42462946B2
:10076800484604F087F8CDE703AB42462946381DD2
:1007780004F080F8C6E700BF2DE9F04387B0804653
:100788009146007801240DF10F020E468DF80F40B6
:1007980006F01AFF9DF80F50059035B1002405AFFB
:1007A800ACB10134A542FBD10598ADF81200022284
:1007B8000DF1120104A87AF0B5FC9DF810209DF8FF
:1007C800113005983270737007B0BDE8F083009758
:1007D800D8E916014B46324603F018FFE1E700BF9F
:1007E80070B586B004AB05AE04460078CDE9003696
:1007F8000DF10F030D4606F0B9FE9DF90F0008B183
:1008080006B070BD3146284603F0E4FEC4E916017F
:100818009DF90F0006B070BD81F0004102E000BFF5
:1008280083F0004330B54FEA41044FEA430594EAA8
:10083800050F08BF90EA020F1FBF54EA000C55EAE3
:10084800020C7FEA645C7FEA655C00F0E2804FEAB4
:100858005454D4EB5555B8BF6D420CDD2C4480EA96
:10086800020281EA030382EA000083EA010180EAC6
:10087800020281EA0303362D88BF30BD11F0004F14
:100888004FEA01314FF4801C4CEA113102D040424A
:1008980061EB410113F0004F4FEA03334CEA133385
:1008A80002D0524263EB430394EA050F00F0A7809D
:1008B800A4F10104D5F1200E0DDB02FA0EFC22FA98
:1008C80005F2801841F1000103FA0EF2801843FA8C
:1008D80005F359410EE0A5F120050EF1200E012A7D
:1008E80003FA0EFC28BF4CF0020C43FA05F3C018BB
:1008F80051EBE37101F0004507D54FF0000EDCF134
:10090800000C7EEB00006EEB0101B1F5801F1BD3DC
:10091800B1F5001F0CD349085FEA30004FEA3C0CE0
:1009280004F101044FEA445212F5800F80F09A80D6
:10093800BCF1004F08BF5FEA500C50F1000041EBDA
:10094800045141EA050130BD5FEA4C0C404141EBDE
:100958000101013C28BFB1F5801FE9D291F0000FD9
:1009680004BF01460020B1FA81F308BF2033A3F188
:100978000B03B3F120020CDA0C3208DD02F1140C7F
:10098800C2F10C0201FA0CF021FA02F10CE002F1BA
:100998001402D8BFC2F1200C01FA02F120FA0CFCB3
:1009A800DCBF41EA0C019040E41AA2BF01EB0451FC
:1009B800294330BD6FEA04041F3C1CDA0C340EDCFA
:1009C80004F11404C4F1200220FA04F001FA02F33D
:1009D80040EA030021FA04F345EA030130BDC4F1FB
:1009E8000C04C4F1200220FA02F001FA04F340EAF0
:1009F8000300294630BD21FA04F0294630BD94F0A1
:100A0800000F83F4801306BF81F480110134013D87
:100A18004EE77FEA645C18BF7FEA655C29D094EAF8
:100A2800050F08BF90EA020F05D054EA000C04BF76
:100A38001946104630BD91EA030F1EBF0021002061
:100A480030BD5FEA545C05D14000494128BF41F000
:100A5800004130BD14F580043CBF01F5801130BD64
:100A680001F0004545F0FE4141F470014FF00000EF
:100A780030BD7FEA645C1ABF194610467FEA655CA0
:100A88001CBF0B46024650EA013406BF52EA033542
:100A980091EA030F41F4002130BD00BF90F0000F30
:100AA80004BF0021704730B54FF4806404F132046C
:100AB8004FF000054FF0000150E700BF90F0000F25
:100AC80004BF0021704730B54FF4806404F132044C
:100AD80010F0004548BF40424FF000013EE700BF1C
:100AE80042004FEAE2014FEA31014FEA02701FBFAC
:100AF80012F07F4393F07F4F81F06051704732F0DE
:100B08007F4208BF704793F07F4F04BF41F4002134
:100B1800704730B54FF4607401F0004521F0004192
:100B28001CE700BF50EA010208BF704730B54FF01C
:100B380000050AE050EA010208BF704730B511F01D
:100B4800004502D5404261EB41014FF4806404F155
:100B580032045FEA915C3FF4D8AE4FF003025FEADB
:100B6800DC0C18BF03325FEADC0C18BF033202EB5F
:100B7800DC02C2F1200300FA03FC20FA02F001FAB9
:100B880003FE40EA0E0021FA02F11444BDE600BF5C
:100B980070B54FF0FF0C4CF4E06C1CEA11541DBF0B
:100BA8001CEA135594EA0C0F95EA0C0F00F0DEF8D6
:100BB8002C4481EA030621EA4C5123EA4C5350EABB
:100BC800013518BF52EA033541F4801143F480130C
:100BD80038D0A0FB02CE4FF00005E1FB02E506F09D
:100BE8000042E0FB03E54FF00006E1FB03569CF0F2
:100BF800000F18BF4EF0010EA4F1FF04B6F5007FF8
:100C080064F5407404D25FEA4E0E6D4146EB060669
:100C180042EAC62141EA55514FEAC52040EA5E50F2
:100C28004FEACE2EB4F1FD0C88BFBCF5E06F1ED89C
:100C3800BEF1004F08BF5FEA500E50F1000041EBD3
:100C4800045170BD06F0004646EA010140EA020080
:100C580081EA0301B4EB5C04C2BFD4EB0C0541EAA2
:100C6800045170BD41F480114FF0000E013C00F3B7
:100C7800AB8014F1360FDEBF002001F0004170BDDB
:100C8800C4F10004203C35DA0C341BDC04F11404F4
:100C9800C4F1200500FA05F320FA04F001FA05F280
:100CA80040EA020001F0004221F0004110EBD3704D
:100CB80021FA04F642EB06015EEA430E08BF20EA79
:100CC800D37070BDC4F10C04C4F1200500FA04F31C
:100CD80020FA05F001FA04F240EA020001F00041AE
:100CE80010EBD37041F100015EEA430E08BF20EA21
:100CF800D37070BDC4F1200500FA05F24EEA020E69
:100D080020FA04F301FA05F243EA020321FA04F097
:100D180001F0004121FA04F220EA020000EBD3704E
:100D28005EEA430E08BF20EAD37070BD94F0000F4E
:100D38000FD101F00046400041EB010111F4801F82
:100D480008BF013CF7D041EA060195F0000F18BF33
:100D5800704703F00046520043EB030313F4801F6F
:100D680008BF013DF7D043EA0603704794EA0C0F29
:100D78000CEA135518BF95EA0C0F0CD050EA41063F
:100D880018BF52EA4306D1D181EA030101F00041BC
:100D98004FF0000070BD50EA410606BF10461946E4
:100DA80052EA430619D094EA0C0F02D150EA0136F0
:100DB80013D195EA0C0F05D152EA03361CBF104631
:100DC80019460AD181EA030101F0004141F0FE41D0
:100DD80041F470014FF0000070BD41F0FE4141F454
:100DE800780170BD70B54FF0FF0C4CF4E06C1CEA54
:100DF80011541DBF1CEA135594EA0C0F95EA0C0F09
:100E080000F0A7F8A4EB050481EA030E52EA0335C3
:100E18004FEA013100F088804FEA03334FF08055E4
:100E280045EA131343EA12634FEA022245EA111511
:100E380045EA10654FEA00260EF000419D4208BFC2
:100E4800964244F1FD0404F5407402D25B084FEA6F
:100E58003202B61A65EB03055B084FEA32024FF41B
:100E680080104FF4002CB6EB020E75EB030E22BF78
:100E7800B61A754640EA0C005B084FEA3202B6EB38
:100E8800020E75EB030E22BFB61A754640EA5C00E7
:100E98005B084FEA3202B6EB020E75EB030E22BF77
:100EA800B61A754640EA9C005B084FEA3202B6EB78
:100EB800020E75EB030E22BFB61A754640EADC0037
:100EC80055EA060E18D04FEA051545EA16754FEA99
:100ED80006164FEAC30343EA52734FEAC2025FEAB7
:100EE8001C1CC0D111F4801F0BD141EA00014FF046
:100EF80000004FF0004CB6E711F4801F04BF014317
:100F08000020B4F1FD0C88BFBCF5E06F3FF6AFAE32
:100F1800B5EB030C04BFB6EB020C5FEA500C50F1C2
:100F2800000041EB045170BD0EF0004E4EEA113145
:100F380014EB5C04C2BFD4EB0C0541EA045170BD4C
:100F480041F480114FF0000E013C90E645EA060E90
:100F58008DE60CEA135594EA0C0F08BF95EA0C0FBE
:100F68003FF43BAF94EA0C0F0AD150EA01347FF406
:100F780034AF95EA0C0F7FF425AF104619462CE7DD
:100F880095EA0C0F06D152EA03353FF4FDAE104640
:100F9800194622E750EA410618BF52EA43067FF491
:100FA800C5AE50EA41047FF40DAF52EA43057FF421
:100FB800EBAE12E74FF0FF3C06E000BF4FF0010C2C
:100FC80002E000BF4FF0010C4DF804CD4FEA410C90
:100FD8007FEA6C5C4FEA430C18BF7FEA6C5C1BD05D
:100FE80001B050EA410C0CBF52EA430C91EA030FDE
:100FF80002BF90EA020F0020704710F1000F91EA3B
:10100800030F58BF994208BF90422CBFD8176FEA08
:10101800E37040F0010070474FEA410C7FEA6C5CD6
:1010280002D150EA013C07D14FEA430C7FEA6C5CDD
:10103800D6D152EA033CD3D05DF8040B704700BF09
:101048008446104662468C461946634600E000BF57
:1010580001B5FFF7B7FF002848BF10F1000F01BD29
:101068004DF808EDFFF7F4FF0CBF012000205DF8F4
:1010780008FB00BF4DF808EDFFF7EAFF34BF012079
:1010880000205DF808FB00BF4DF808EDFFF7E0FF12
:1010980094BF012000205DF808FB00BF4DF808ED63
:1010A800FFF7CEFF94BF012000205DF808FB00BFCA
:1010B8004DF808EDFFF7C4FF34BF012000205DF8AC
:1010C80008FB00BF4FEA410212F5001215D211D5F4
:1010D8006FF47873B3EB625212D94FEAC12343F02D
:1010E800004343EA505311F0004F23FA02F018BFAF
:1010F800404270474FF00000704750EA013005D178
:1011080011F0004008BF6FF0004070474FF000003A
:10111800704700BF4A0011D212F5001211D20DD546
:101128006FF47873B3EB62520ED44FEAC12343F0E5
:10113800004343EA505323FA02F070474FF000008F
:10114800704750EA013002D14FF0FF3070474FF03E
:10115800000070474FEA4102B2F1E04324BFB3F503
:10116800001CDCF1FE5C0DD901F0004C4FEAC00216
:101178004CEA5070B2F1004F40EB830008BF20F0FA
:101188000100704711F0804F21D113F13872BCBFB4
:1011980001F00040704741F480114FEA5252C2F109
:1011A8001802C2F1200C10FA0CF320FA02F018BF52
:1011B80040F001004FEAC1234FEAD32303FA0CFCA5
:1011C80040EA0C0023FA02F34FEA4303CCE77FEA34
:1011D800625307D150EA01331EBF4FF0FE4040F47E
:1011E8004000704701F0004040F0FE4040F400002D
:1011F800704700BF80F0004002E000BF81F000416E
:1012080042001FBF5FEA410392EA030F7FEA226CA4
:101218007FEA236C6AD04FEA1262D2EB1363C1BF34
:10122800D218414048404140B8BF5B42192B88BFA3
:10123800704710F0004F40F4000020F07F4018BFC6
:10124800404211F0004F41F4000121F07F4118BFE6
:10125800494292EA030F3FD0A2F1010241FA03FC8E
:1012680010EB0C00C3F1200301FA03F100F0004376
:1012780002D5494260EB4000B0F5000F13D3B0F13E
:10128800807F06D340084FEA310102F10102FE2AAD
:1012980051D2B1F1004F40EBC25008BF20F001001D
:1012A80040EA03007047490040EB0000013A28BFBC
:1012B800B0F5000FEDD2B0FA80FCACF1080CB2EB3F
:1012C8000C0200FA0CF0AABF00EBC25052421843BD
:1012D800BCBFD0401843704792F0000F81F4000162
:1012E80006BF80F400000132013BB5E74FEA410335
:1012F8007FEA226C18BF7FEA236C21D092EA030FA1
:1013080004D092F0000F08BF0846704790EA010F1A
:101318001CBF0020704712F07F4F04D1400028BF47
:1013280040F00040704712F100723CBF00F5000029
:10133800704700F0004343F0FE4040F4000070475F
:101348007FEA226216BF08467FEA2363014642020B
:1013580006BF5FEA412390EA010F40F4800070471E
:101368004FF0000304E000BF10F0004348BF4042C4
:101378005FEA000C08BF704743F0964301464FF000
:1013880000001CE050EA010208BF70474FF000035C
:101398000AE000BF50EA010208BF704711F000439D
:1013A80002D5404261EB41015FEA010C02BF84466D
:1013B8000146002043F0B64308BFA3F18053A3F5CC
:1013C8000003BCFA8CF2083AA3EBC25310DB01FA13
:1013D80002FC634400FA02FCC2F12002BCF1004F97
:1013E80020FA02F243EB020008BF20F00100704728
:1013F80002F1200201FA02FCC2F1200250EA4C007C
:1014080021FA02F243EB020008BF20EADC707047C1
:101418004FF0FF0C1CEAD0521EBF1CEAD15392EACF
:101428000C0F93EA0C0F6FD01A4480EA010C4002AB
:1014380018BF5FEA41211ED04FF0006343EA501005
:1014480043EA5111A0FB01310CF00040B1F5000F47
:101458003EBF490041EAD3715B0040EA010062F1F6
:101468007F02FD2A1DD8B3F1004F40EBC25008BFE0
:1014780020F00100704790F0000F0CF0004C08BFFE
:1014880049024CEA502040EA51207F3AC2BFD2F1CB
:10149800FF0340EAC250704740F400004FF00003D9
:1014A800013A5DDC12F1190FDCBF00F00040704713
:1014B800C2F10002410021FA02F1C2F1200200FA51
:1014C80002FC5FEA310040F1000053EA4C0308BF18
:1014D80020EADC70704792F0000F00F0004C02BF69
:1014E800400010F4000F013AF9D040EA0C0093F0E4
:1014F800000F01F0004C02BF490011F4000F013B3E
:10150800F9D041EA0C018FE70CEAD15392EA0C0FAB
:1015180018BF93EA0C0F0AD030F0004C18BF31F016
:10152800004CD8D180EA010000F00040704790F0EC
:10153800000F17BF90F0004F084691F0000F91F090
:10154800004F14D092EA0C0F01D142020FD193EA56
:101558000C0F03D14B0218BF084608D180EA0100DE
:1015680000F0004040F0FE4040F40000704740F0BA
:10157800FE4040F4400070474FF0FF0C1CEAD05288
:101588001EBF1CEAD15392EA0C0F93EA0C0F69D0E4
:10159800A2EB030280EA010C49024FEA402037D04F
:1015A8004FF0805343EA111143EA10130CF0004046
:1015B8008B4238BF5B0042F17D024FF4000C8B4236
:1015C80024BF5B1A40EA0C00B3EB510F24BFA3EB16
:1015D800510340EA5C00B3EB910F24BFA3EB9103E6
:1015E80040EA9C00B3EBD10F24BFA3EBD10340EA40
:1015F800DC001B0118BF5FEA1C1CE0D1FD2A3FF686
:1016080050AF8B4240EBC25008BF20F0010070473A
:101618000CF0004C4CEA50207F32C2BFD2F1FF03DD
:1016280040EAC250704740F400004FF00003013A0E
:1016380037E792F0000F00F0004C02BF400010F4B2
:10164800000F013AF9D040EA0C0093F0000F01F0C6
:10165800004C02BF490011F4000F013BF9D041EAE8
:101668000C0195E70CEAD15392EA0C0F08D142021B
:101678007FF47DAF93EA0C0F7FF470AF084676E7EE
:1016880093EA0C0F04D14B023FF44CAF08466EE7C7
:1016980030F0004C18BF31F0004CCAD130F0004295
:1016A8007FF45CAF31F000437FF43CAF5FE700BFED
:1016B8004FF0FF3C06E000BF4FF0010C02E000BF16
:1016C8004FF0010C4DF804CD4FEA40024FEA4103B8
:1016D8007FEA226C18BF7FEA236C11D001B052EA6E
:1016E800530C18BF90EA010F58BFB2EB030088BF34
:1016F800C81738BF6FEAE17018BF40F001007047A3
:101708007FEA226C02D15FEA402C05D17FEA236C84
:10171800E4D15FEA412CE1D05DF8040B704700BFCB
:10172800844608466146FFE70FB5FFF7C9FF002862
:1017380048BF10F1000F0FBD4DF808EDFFF7F4FF9B
:101748000CBF012000205DF808FB00BF4DF808ED34
:10175800FFF7EAFF34BF012000205DF808FB00BF57
:101768004DF808EDFFF7E0FF94BF012000205DF879
:1017780008FB00BF4DF808EDFFF7D2FF94BF01202A
:1017880000205DF808FB00BF4DF808EDFFF7C8FF23
:1017980034BF012000205DF808FB00BF4FEA40027B
:1017A800B2F1FE4F0FD34FF09E03B3EB12620DD987
:1017B8004FEA002343F0004310F0004F23FA02F0F1
:1017C80018BF404270474FF00000704712F1610F98
:1017D80001D1420205D110F0004008BF6FF000406F
:1017E80070474FF00000704742000ED2B2F1FE4F32
:1017F8000BD34FF09E03B3EB126209D44FEA0023D8
:1018080043F0004323FA02F070474FF0000070479E
:1018180012F1610F01D1420202D14FF0FF3070473F
:101828004FF00000704700BF7BB972B90029BEBFF6
:1018380000204FF0004106E008BF00281CBF6FF0F1
:1018480000414FF0FF3000F075B8ADF1080C6DE9BC
:1018580004CE002909DB002B1ADB06F051F8DDF86D
:1018680004E0DDE9022304B07047404261EB410126
:10187800002B1BDB06F044F8DDF804E0DDE9022369
:1018880004B0404261EB4101524263EB43037047AD
:10189800524263EB430306F033F8DDF804E0DDE978
:1018A800022304B0404261EB41017047524263EBAE
:1018B800430306F025F8DDF804E0DDE9022304B06F
:1018C800524263EB4303704753B94AB9002908BF32
:1018D80000281CBF4FF0FF314FF0FF3000F02AB84E
:1018E800ADF1080C6DE904CE06F00AF8DDF804E065
:1018F800DDE9022304B07047D0B500220B4B064641
:101908000F46FFF745F9FFF705FC0446FFF7C6F851
:101918000022074BFFF73CF902460B463046394692
:10192800FEF77EFFFFF7F6FB2146D0BD0000F03D35
:101938000000F041704700BF08B50146024800F0BA
:1019480005FB002008BD00BFE89B002008B5024841
:1019580000F004FB002008BDE89B00200146014878
:1019680000F0FEBAE89B002030B585B00D460DF1B9
:101978000F0401460192044800942A46FEF7E8FB4A
:101988009DF90F0005B030BDE89B002030B585B04B
:101998000D460DF10F0401460192044800942A46B1
:1019A80000F070F89DF90F0005B030BDE89B0020ED
:1019B80030B583B00D461446014600932A462346A7
:1019C800024800F005FE03B030BD00BFE89B0020D0
:1019D80030B583B00D461446014600932A46234687
:1019E800024800F04BFE03B030BD00BFE89B00206A
:1019F800F0B587B08C460C9E009317460DF1130482
:101A080005ADCDE9024501463B46064801966246CA
:101A18000D9C00F0E5F9059B9DF91300236007B0C4
:101A2800F0BD00BFE89B0020F0B587B08C460C9E47
:101A3800009317460DF1130405ADCDE902450146A3
:101A48003B460648019662460D9C00F031FA059B1C
:101A58009DF91300236007B0F0BD00BFE89B00208C
:101A680030B585B00D460DF10F0101922B460246A7
:101A78000091034800F07AFA9DF90F0005B030BDD7
:101A8800E89B00202DE9F04F8DB01D46169C05936C
:101A9800002323702C780391054616468CB1179ABB
:101AA80002EB04141A46179B4FF0000C002000218B
:101AB8005A73C3F808C01A739A73E3E804019C4286
:101AC800F6D1002E00F06C814FF00009C04BDDF814
:101AD8000C800495CA4626E0BE4F11F001013A4435
:101AE80035D010EA0A0F4AEA000A40F0F38012F8EB
:101AF80001BC049BD8F8085003EB8B0B2846DBF895
:101B08000C19FFF723FE014609F10109284608F1DF
:101B1800100829BBDBF82C19FFF736FEAC4B8446BE
:101B2800F0B9B14521D098F80D20541EE4B2012037
:101B3800172C43FA04F100FA04F0CDD9169AFF23C2
:101B480013700026059B1E700DB0BDE8F08F169A25
:101B5800FF231370059B0E461E700DB0BDE8F08F75
:101B6800169AFE2313700026ECE70DF128080DF1F4
:101B7800200B0398049D8DF81E4043465A46314673
:101B88008DF81DC001F070F8DDE90A2300214FF639
:101B9800FF708B4208BF824209D00899284601F09D
:101BA8007DF8002840F0AD80002E48D0894F039C76
:101BB8009DF81D90CDF80C904346A4464FF0000EBA
:101BC8004FF0040AA04699469CF80D303B44DCE9E6
:101BD800000113F8013CE53305EBC303D3E9002307
:101BE800994208BF90420EF1010E0CF1100C04D17D
:101BF800039C14B9169C84F800A0B645E4DB99420E
:101C08004F4608BF9042DDF80C9014BF0123002313
:101C180044468DF81F30B8464B46002701E09DF832
:101C28001D30617B0193A3680093D4E90023013739
:101C3800284602F061FAB74204F11004EFDB95F888
:101C4800EB3A002B6BD195F8BC1A95F8EA2A28468E
:101C580001F0FAFC059B1E78002E56D000245E4F3A
:101C680026464FF6FF7A02E001341A2C29D047FAAB
:101C780004F3DB07F8D5594BE35C05EB43034FF05E
:101C88000109B3F8B038534509FA04F220D0D5F861
:101C98008C381A4204F10104E7D00DF11E03E1B2B9
:101CA80000935A4643462846039102F025F9059BBE
:101CB80003991B78B34206F1010210D8169A032340
:101CC80013700023C5F88C38284600F033FE39E736
:101CD8004C44CAE7169AFA231370002632E7179B7A
:101CE800D6B2701E03EB0010DDE90A23C0E9002319
:101CF800089A9DF81E30417380F80C9082608373B7
:101D0800B3E701238DF81D304EE7169A02231370AE
:101D18000023C5F88C38284600F00CFE12E70DF1B8
:101D28001D0342465946284602F0D4F80DF11F0318
:101D3800424609A9284602F093FA9DF81D3013B1CE
:101D48009DF81F3033B995F8EA2A511EC9B285F8B3
:101D5800BC1A7CE7089877F079F8FFF745FD95F805
:101D6800B42AC3B29A428DF81E3002D0169A0523BF
:101D78001370089895F8EA4A77F068F8FFF734FD89
:101D8800431CDBB20121B3FBF4F204FB12339DF8D0
:101D98001E2085F8B43A85F8EC1A85F8ED2AD2E7C2
:101DA8000DF128080DF1200B03988DF81D604346AE
:101DB8005A46314600F058FFDDE90A2300214FF664
:101DC800FF708B4208BF82423FF439AFE5E600BF9F
:101DD8000F20E000A4620D00EF79F20388620D0085
:101DE8002DE9F04F85B0DDE9108A1D46DF2388F81C
:101DF800003000241023172DCAF8004003932AD975
:101E08001746002934D106460C4688F800108B4640
:101E180040F2177901E00B2C20D049FA04F3DB07D4
:101E280004F10104F7D5DDE90E23CDF800B0E1B2E5
:101E3800304601F0EBFF0028EDD00F9B01930E9B7D
:101E4800009303AA03462946384600F051FD88F856
:101E580000000028DFD005B0BDE8F08F98F9003009
:101E6800002BF8D1DDE90E12304600F055FE78B9A6
:101E780098F90040002CEED1039BCAF80030384690
:101E8800514600F0F3FD88F8004005B0BDE8F08F3A
:101E98000F9B01930E9B00932946034603AA3846DD
:101EA80000F026FD044688F80000002CD3D1E3E7B3
:101EB8002DE9F04F85B0DDE9108A1D46DF2388F84B
:101EC800003000241023182DCAF80040039329D9A4
:101ED800174651BB06460C4688F800108B4640F260
:101EE800177901E00B2C20D049FA04F3DB0704F141
:101EF8000104F7D5DDE90E23CDF800B0E1B2304694
:101F080001F0B6FF0028EDD00F9B01930E9B0093C4
:101F180003AA03462946384600F0EAFC88F8000080
:101F28000028DFD005B0BDE8F08F98F90040002CFC
:101F3800F8D1039BCAF800303846514600F096FDA8
:101F480088F8004005B0BDE8F08F00BF00230220EC
:101F5800042208704A708B70CB70704700F0DEBBAB
:101F680008B500F00DFF002008BD00BF2DE9F04FB7
:101F78009BB04FF00008259D0393044600F6D62138
:101F8800C5E90088C5E9028885F83980A5F83A804E
:101F9800A5F83C8085F83E80164605F1100014220D
:101FA80004F6C22B79F0BEF85946142205F1240034
:101FB80079F0B8F894F8EA3A85F83830249B83F831
:101FC8000080B4F85C3A0493204604F6F80A00F05E
:101FD800B1FCDAE9008958EA090304D094F8BD3A5B
:101FE800002B00F0F18094F8EB3A8BB394F8EA3ABE
:101FF80094F8ED2A013BDBB29A4204D194F8BD3A39
:10200800022B00F04D8194F8B83A85F83A3094F8EC
:10201800B62A9C4B039F85F83B2094F8B71A85F89D
:102028003C10F3184FF0000247EB02020121C5E90A
:10203800003285F8391002222946204601F038F886
:102048000423A4F85A3ACAE900671BB0BDE8F08F28
:102058000DF146070DF1450300972A460121204658
:1020680000F06EFC9DF84530BDF846803BB194F811
:10207800B83A85F83A3094F8B63A85F83B300DF11D
:1020880045032A4600970221204600F059FCBDF876
:1020980046209DF84530904528BF90463BB194F8BE
:1020A800B73A85F83C3094F8B63A85F83B300DF1EC
:1020B80045032A4600970321204600F041FCBDF85D
:1020C80046209DF84530904528BF9046002B40F0AB
:1020D800C28000970DF145032A460421204600F0EE
:1020E8002FFCBDF84670049A9DF84530474528BF37
:1020F8004746974228BF1746002B40F0608104F5F9
:102108001068B4F8B23AB3FBF7F207FB1232BF1A01
:10211800BFB2B4F85ECACAF800603B449BB2B3FBD6
:10212800FCF10CFB1131039BCAF804300022564B1A
:10213800A4F85A7AA4F8B21A00205449ADF846C057
:1021480007F036FA05F04EFA05F0C3FBA0FB0723AB
:1021580001FB0733D8E900019719039E43EB0606F4
:10216800381A4FF0000366EB0101C5E9007684F8E0
:10217800BA3AFFF70FF94649FFF7FEF94549054610
:10218800FFF7E4FAD0B944492846FFF7FDFAA8B9A1
:10219800D4F80809D4F80C19381A66EB0101FFF7CE
:1021A800F9F83B49FFF7E8F93A49FFF7CFFA002871
:1021B80000F0BE81662384F8BB3A46E7652384F8BD
:1021C800BB3A1BB0BDE8F08F039F3049B6EB08035C
:1021D80067EB09070C9300222B4B0D97002007F0A3
:1021E800E7F902460B46CDE90E23B4F85A2A002334
:1021F800CDE9062305F0F6F905F06BFB069A0B46C8
:10220800A0FB020103FB02110C9BC31A089361EBAC
:1022180007030993DDE908234FEA101848EA017813
:102228004FEA2119904579EB0303CDE91201C0F279
:1022380068810C9B1B1A0A930D9B63EB01030B939C
:10224800DDE90A23904579EB0303BFF6CCAE249A67
:1022580064231370C7E6114B94F8B62A5B7B85F8A4
:102268003B2004EB43034FF6FF72B3F8A038ADF8F8
:10227800463093423FF42DAFAB6843F40053AB6054
:1022880027E700BFC00E160200001C4000002440D3
:10229800286B6E4E0000704200007043A4620D006F
:1022A80094F8EC3A002B3FF4AEAE94F8BF3A94F8A9
:1022B800BE0A1844FEF702FC02460B4694F8C00A10
:1022C80000F038FA94F8BE2A431CDBB29A4284F82C
:1022D800C03ABFF498AE5946142215A878F022FFE8
:1022E800BDF85400FEF7DAFB15AF804689460DF1BC
:1022F800660B37F8020FFEF7D1FB02460B46404645
:102308004946FEF78FFABB4580468946F1D105F06C
:10231800E0FA94F8BF8ADFF8B4E2A8FB002301FBD7
:102328000833DF004FEAC20C1CEB020C47EA527775
:1023380043EB07074FEA8C01BF0047EA9C77B1EBF4
:10234800020CA2FB0E01039A0EFB031167EB0307B5
:10235800831941EB0202BF00C5E9003247EA9C77C6
:1023680029464FEA8C0C00222046CDE912C700F01E
:102378009FFEDDE912890123B8F1000F84F8C03A05
:1023880079F10003C0F2E6800A220023404649465C
:10239800FFF79AFA0A220546002340464946FFF706
:1023A80093FA002B08BF052A80F0F780AAB2039B96
:1023B800A4F85A2ACAF80060CAF8043045E601238E
:1023C80085F8393094F8B52A02F2375215A934F84D
:1023D8001220AA8194F8B72A85F83C2094F8B62AE6
:1023E80085F83B2020460DF1450312AA01F074FF41
:1023F80015980021FFF7A0F988B194F8BA3A73B993
:1024080094F8B53A03F2335304F5106834F81330EE
:10241800EB81039BC8F80060C8F8043071E604F546
:10242800106804F6081BD8E90023DBE900018242A2
:1024380073EB010CCDE9122303DACDE91201024650
:102448000B460399B01A61EB0301FEF7A3FF574946
:10245800FFF792F84FF08141159007F065FF544956
:102468000490159807F060FF049B5249DDF85490DA
:10247800024618460692FEF7CBFF069A4E4904908C
:102488001046FEF7C5FF049B01461846FEF7B8FE46
:102498004946034648460493FEF7BAFF4749FEF704
:1024A800B7FF049B01461846FEF7AAFE444904906C
:1024B8004846FEF7ADFF049B01461846FEF7A0FE0E
:1024C8004049FEF79DFE4049FEF7A2FF76F0BEFCAC
:1024D800FFF78AF994F8BA3AE88100225BBB0193C6
:1024E8000092039B32461621204601F005FE94F81F
:1024F800BA3A002B8DD0039BCBF80060CBF80430A0
:10250800FFE5DDE90E01DAE90067B4F85A8A05F05B
:1025180069F805F0DEF9A0FB0823961901FB0833DA
:1025280047EB0303C5E90063249B64221A708CE51A
:1025380084F8BB0A89E54FF07E5301920093324636
:10254800039B1621204601F0D7FDAB6843F4001326
:10255800AB60CCE7B9F1004F08BFB8F1000F1FD04E
:10256800D8F1000869EB49090A2200234046494688
:10257800FFF7AAF903460D460493404649460A2246
:1025880000230595FFF7A0F9002B08BF052ADDE910
:10259800042308D2524292B209E76A1C92B206E7B3
:1025A80043F2333203E7D24392B200E7286B6E4E10
:1025B80000004040598207B0DFE0C2343767D9B81D
:1025C8005A8E863C6A92E43E00007A44003B5808E2
:1025D8002DE9F04F8BB08846DDF850901646002163
:1025E80000F6F80205460DF11E0B00200DF1200A39
:1025F800C2E900011C4631465B4640464A46CDF8D2
:1026080000A000F0CFFD9DF91E3013BB0DF11F0394
:10261800083E0593089FB7424B462246514640461E
:1026280025D209AF0297059FCDE900B700F04EFB10
:102638009DF91E30224628465BB99DF81F10FE29D9
:102648000BD0099B00F0CEFF03468DF81E00002B2F
:10265800E0D018460BB0BDE8F08F099A214600F08B
:1026680025FE03468DF81E00002BD3D0F1E79DF917
:102678001E3018460BB0BDE8F08F00BF2DE9F04FB3
:102688008BB00F46DDF850900DF11E0B0DF1200AAE
:102698001146154680461C4638465B464A46CDF8E4
:1026A80000A000F07FFD9DF91E3013BB0DF11F0344
:1026B800083D0593089EAE424B4622465146384691
:1026C80025D209AE0296059ECDE900B600F0FEFAC5
:1026D8009DF91E30224640465BB99DF81F10FE2921
:1026E8000BD0099B01F0D6FC03468DF81E00002B89
:1026F800E0D018460BB0BDE8F08F0999204600F0ED
:10270800A7FE03468DF81E00002BD3D0F1E79DF9F4
:102718001E3018460BB0BDE8F08F00BF10B5044658
:1027280000F0ECFE204600F08BFC204600F040FB59
:10273800204610BD2DE9F84F1946074610461446A5
:102748001D4604F04FFFFEF7E5FCC6B23046FEF723
:10275800B5F922462B46FEF783FC30B1B7FBF6F3FA
:1027680006FB1370C0B2BDE8F88F3846FEF796F93D
:10277800002206460F46002320462946FEF770FC35
:10278800A0BB2046294676F085FB02460B4620462C
:102798002946FEF765FC48BB22462B46304639469B
:1027A800FEF720FB78F00EFC174B00228046894686
:1027B800FEF738F876F0F4FA02460B4640464946EA
:1027C800FEF72EF878F0FEFB104B82468B4600226F
:1027D80040464946FEF7DCF902460B465046594644
:1027E800FEF752FC10B10020002105E022462B46DE
:1027F8003046394676F078FB04F0F4FEFEF78AFCA2
:10280800C0B2BDE8F88F00BF0000E03F0000B03C58
:102818002DE9F0470646324D324F01F00DFC0023FA
:1028280003E05C1C1A2C234610D045FA03F2D107AA
:10283800F7D5DA5D02F23B525C1C36F81220E1B2A1
:10284800304601F0BFFC1A2C2346EED1304601F089
:1028580077FBDFF88C90234FDFF89080002502E0AB
:1028680001351A2D1AD049FA05F3DA07F8D5EB5DC8
:10287800334493F89D3A002BF2D038F915A0002381
:1028880002E00B2C2346EBD04AFA03F25C1CD30778
:10289800F7D5E1B2304601F05DFCF2E700242146AD
:1028A80086F8B94A132206F69E2078F062FC0E4B91
:1028B80086F8B54ADB7806EB43032146B3F8A0084F
:1028C80006F5266333F8022B904201F1010103D08B
:1028D8000429F7D1BDE8F08786F8B51ABDE8F08776
:1028E800EF79F20388620D00A4620D00EC610D001F
:1028F800F0B41468049EE7188F4215D805998B42E6
:1029080015D8002B0CDD711ECD18C6F1010600E0AC
:1029180014687318234411F8014FC454A942F7D11D
:1029280017600020F0BC70476FF02800FAE76FF0DE
:102938002500F7E790F8B93A03B9704768E700BF90
:1029480070B40139144D039C6D5C00EB45050026FD
:10295800B5F8A0581E704FF6FF76B542258013D003
:10296800B0F8B26AB6FBF5F405FB1465ADB26DB903
:10297800012094681870C9B200FA01F1214382F865
:102988003D0082F83E00916070BC704790F8BA0A2A
:102998000028F9D0ECE700BFA4620D000023F0B5D1
:1029A800DFF8C4C02F4D1C466FF000474FF0010EF2
:1029B8004FF6FF7605E0B24218BF012401331A2B07
:1029C80010D045FA03F2D207F8D513F80C203A4490
:1029D80031F81220B2F5E16FEDD101331A2B80F8EE
:1029E800EBEAEED190F8EB3A8BBBB0F85C7A1D4C71
:1029F8001D4D384644FA03F2D60706D55A5D013A0A
:102A080031F81220904228BF104601331A2BF1D119
:102A18004FF6FF76B04223D0B7FBF0F300FB1373F9
:102A28009BB28BB90F4D104F45FA03F2D20714D55C
:102A3800DA5D013A31F81240B4420ED0B4FBF0F23C
:102A480000FB124292B242B16FF00F00F0BD002CB1
:102A58000CBF00206FF00F00F0BD01331A2BE3D13B
:102A68000020F0BDEF79F20388620D00F0B589B05F
:102A780004460D464FF0017302A903A804220293ED
:102A880078F050FB9DF80F309DF80C009DF80D1064
:102A98009DF80E20E37020706170A27004A906A84A
:102AA80040F2BD1600270822CDE9046778F03AFB0A
:102AB80006A9201D082278F035FB2B6802A9103BD7
:102AC80003A80422029378F02DFB9DF80C009DF8D2
:102AD8000D109DF80E209DF80F302073A273E3733C
:102AE80061732968204601AA04F01CFE2B689DF832
:102AF80004009DF805102344002218712B68234414
:102B080059712B6823449A7128680444E2712B6830
:102B180008332B6009B0F0BD2DE9F04784B00646B4
:102B280017460D240DF10702FE200D468DF80740CB
:102B380004F04AFD9DF807800390B8F1000F2AD0F1
:102B4800012406F6D62A06F6C229E3B2013B0C2B6D
:102B58000FD8DFE803F07068807860585048403933
:102B68003214070096F8EE0A03AB3A46294601F0FC
:102B780019FDA04504F101030CD01C46E5E703ABA1
:102B880096F8EA0A3A46294601F00CFDA04504F1F8
:102B98000103F2D10398ADF80A0002220DF10A01EF
:102BA80002A878F0BFFA9DF808209DF8093003982C
:102BB8002A706B7004B0BDE8F08703AB3A4629462B
:102BC800504602F059F9D4E703AB3A46294648463D
:102BD80002F052F9CDE703AB3A46294606F6BE2085
:102BE80001F05AFCC5E796F8BC0A03AB3A462946F9
:102BF80001F0D8FCBDE7B6F85C0A03AB3A462946B3
:102C080001F012FCB5E703AB3A46294606F6342034
:102C180002F00CF9ADE703AB3A46294606F5156014
:102C280002F0D8F8A5E796F8B70A03AB3A46294662
:102C380001F0B8FC9DE796F8B60A03AB3A46294678
:102C480001F0B0FC95E703AB3A46294606F5266045
:102C580002F094F88DE796F8B80A03AB3A4629468D
:102C680001F0A0FC85E700BFF0B400241460002543
:102C78004FF6FF74C3E9004569B100EB0114417BCD
:102C8800182905D1D0E9006781681160C3E9006798
:102C98001030A042F3D1F0BC704700BF10B584B02B
:102CA8000DF103030C4602AA01A901F013F99DF8DE
:102CB800033043B101982146FEF73EFDB0FA80F09B
:102CC800400904B010BD012004B010BD2DE9F04F3B
:102CD80083B0DDE90CA900248AF8004089F8004097
:102CE8000D460968064608449046427816F801C021
:102CF8008DF8052001A902220DF106009B468DF8EA
:102D080004C078F00FFABDF806700E9B5F451F608F
:102D180005D9E0238AF8003003B0BDE8F08F57B139
:102D2800234608F1FF312A68F0180133825C01F864
:102D3800012F9F42F7D198F8023089F800302B68AC
:102D48003B442B6003B0BDE8F08F00BF0B4B0B4436
:102D580010B413F8013C00EB4301B1F8764A9442F1
:102D680004D0013B0344012483F89E4A0123A1F8BF
:102D7800762A10BC80F8B93A704700BF88620D0007
:102D88000139032900D9704710B50446483003F0CB
:102D980063FC0121204601F075FA04F12C0004F0CF
:102DA8005BF920460221BDE8104001F06BBA00BF74
:102DB800F8B50121054605234FF4817280F8EE1A13
:102DC800A0F8B62A80F8B83A1822864900F5266095
:102DD80005F64E1478F0A6F905F6322623464FF686
:102DE800FF7223F8022FB342FBD17F4BC5F8F039AD
:102DF800C5F8F439C5F8C439C5F8D4397B4B7C49D2
:102E0800C5F8181AC5F850397A49C5F85439C5F8BB
:102E18006039C5F86839C5F88039A3F5E9434C3BF2
:102E2800C5F8D0194FF06411C5F85819C5F86419D8
:102E3800C5F87819C5F88419C5F85C3901F2A46198
:102E4800C5F87C39C5F888396B4B6C48DFF8E8C1A0
:102E5800C5F8741941F2707240F2DC576421C5F864
:102E68008C39674BC5F89C39C5F8A039C5F8A43921
:102E7800C5F8A839A5F8DC29A5F8DA29A5F8C229E2
:102E8800C5F8C8C9C5F8CC09A5F89019A5F8167AE7
:102E98005C49A5F8FC79C5F8AC39A5F8D829C5F876
:102EA800B039C5F8B439C5F86C09C5F87009A5F882
:102EB800FE79402205F5116078F034F995F8EE3A7C
:102EC800002B00F08880504A5049C5F83C2900235F
:102ED8004F4A504F5048C5F81819C5F814394F498A
:102EE800C5F81039C5F82439C5F82839C5F82C397A
:102EF800C5F838294FF08043494AC5F83019C5F854
:102F08004439C5F84839C5F84C29C5F81C79C5F8BD
:102F18003409334605F658214FF6FF7223F8022F7D
:102F28008B42FBD13F4BC5F8BC3A47F23052A5F86B
:102F38005C2A3D4F3D4805F52C6305F6D42C4FF42B
:102F4800A071052203E017F9012F30F8021F23F8BA
:102F5800022F63459982F6D10A22002385F8EA2ACE
:102F6800A5F85E3A4FF6FF7134F8023F8B4205D060
:102F7800B5F85E2A9A4238BFA5F85E3AB442F3D152
:102F88002B4CDFF8B8C00023012744FA03F2D2071C
:102F980011D513F80C2005EB4201013AB1F8320AB9
:102FA800B1F8766A86421CBF521982F89E7AA1F857
:102FB800760A85F8B97A01331A2BE6D105F69D23EE
:102FC80005F52B61012203F8012F8B42FBD195F8FF
:102FD800B93A13B9F8BD174A76E72846BDE8F8406C
:102FE80016E400BF30610D0070177017307530752A
:102FF800DC05DC050807701730756400080708074A
:103008002C012C015C610D00F874C44C000082C2D4
:103018000000FA4200002A430000C8420024F44994
:10302800000010410000050A24610D0048610D00F0
:10303800EF79F203806A494B7017080788620D0020
:1030480070B40022002300F6F804002180F8B51AB5
:10305800A0F8B21A00F60815C4E9002300F51066B6
:1030680047F23054C6E90023C5E90023A0F85A4ABC
:1030780000F6762300F69D2200F69C254FF6FF7495
:1030880023F8024FAB4202F8011FF9D14FF4CC42AA
:10309800012370BC80F8B91A80F8B41A80F8EB1ACA
:1030A800A0F8EC1AA0F8BA2A80F8C03A704700BF16
:1030B80090F8BD3A934211D06AB9002380F8B43A27
:1030C8008B6081F83D30002380F8BD2A80F8EC3A07
:1030D80081F83E207047931E012BEED9B0F8803A54
:1030E800B3F5E16F70B447D08B68B0F8824AB4F595
:1030F800E16FB0F8844A04BF43F001038B60B4F574
:10310800E16FB0F8864A04BF43F002038B60B4F560
:10311800E16FB0F89C4A04BF43F008038B60B4F534
:10312800E16FB0F8944A04BF43F400038B60B4F530
:10313800E16F10D0B0F8964AB4F5E16F0BD0B0F853
:10314800984AB4F5E16F06D0B0F89A4AB4F5E16F41
:1031580001D043B104E043F4000343F00F038B6054
:10316800012381F83D30002380F8BD2A80F8EC3A2D
:1031780070BC81F83E207047094B8D685C7B00EB82
:10318800440445F00403B4F8A0688B604FF6FF745C
:10319800A642AAD045F4005343F004038B60A4E789
:1031A800A4620D00F0B589B00C460E9D0021172CC5
:1031B8001E46296003D8DB23337009B0F0BD944262
:1031C80003D9DA23337009B0F0BD074602A93A786B
:1031D8007B788DF80820BA788DF809308DF80A20A8
:1031E800FB788DF80B3003A8042277F09BFF039B34
:1031F800B3F1017F04D0013302D0DE233370DCE762
:103208000822391D06A877F08DFF06A9082204A810
:1032180077F088FFDDE90423002140F2BD108B42DE
:1032280008BF824207D0002B08BFB2F1FF3F02D08F
:10323800DD233370C1E73A7B7B7B8DF80820BA7BAE
:103248008DF8093002A9FB7B8DF80A2003A8042217
:103258008DF80B3077F066FF039901F11803A3424C
:1032680002D0D8233370A8E701AA3846103104F0F9
:1032780059FA38199DF8042010F8043C9A4202D0F3
:10328800DC23337099E79DF8052010F8033C9A4237
:10329800F6D110F8023C002BF2D110F8013C002BBB
:1032A800EED110222A60337087E700BF2DE9F0477E
:1032B80086B004AB05AECDE9003604460DF10F0328
:1032C800FE200D4604F052F99DF90F00002862D146
:1032D8004FF0010A04F6D62904F6C22804F6BE27E0
:1032E8005FFA8AF3013B0B2B00F2A680DFE803F0BC
:1032F80099928B847D766F625C69560631462846C2
:1033080001F03AF984F8EA0A0AF1010ABAF10E0F53
:10331800E6D10023A4F85E3A04F6322504F64E13EB
:103328004FF6FF7033F8022F824205D0B4F85E1AC8
:10333800914238BFA4F85E2A9D42F3D1424DDFF88E
:103348000CC10023012745FA03F2D20711D513F85F
:103358000C2004EB4201013AB1F8320AB1F8766A5E
:1033680086421CBF121982F89E7AA1F8760A84F860
:10337800B97A01331A2BE6D104F69D2304F52B61A3
:10338800012203F8012F8B42FBD194F8B93A002BA4
:103398004ED19DF90F0006B0BDE8F0874A46314688
:1033A800284601F04DFAAFE73A463146284601F083
:1033B8005DF8A9E73146284601F0DEF884F8BC0A32
:1033C800A2E742463146284601F03AFA9CE73146E0
:1033D800284601F011F8A4F85C0A95E704F63422AF
:1033E8003146284601F0E2F98EE704F515623146C8
:1033F800284601F095F987E704F526623146284604
:1034080001F04EF980E73146284601F0B5F884F816
:10341800B80A79E73146284601F0AEF884F8B70AC9
:1034280072E73146284601F0A7F884F8B60A6BE738
:103438002046FFF7EDF9ACE73146284601F09CF845
:1034480084F8EE0A60E700BFEF79F20388620D00A6
:10345800032916D910B582B0027843788DF8042074
:103468000446022201A90DF106008DF8053077F017
:1034780059FEA378FE2B0CBF00206FF0630002B04A
:1034880010BD6FF067007047194B013970B45B5C71
:1034980000EB43034FF6FF72B3F89248944206D00C
:1034A800144CD0F8902834F91140944302D00020ED
:1034B80070BC7047104CD0F8745854F82140AC4395
:1034C800F5D1B3F8E458B3F8D6686C1CA5B2B5FBCF
:1034D800F6F406FB1454A4B2A3F8E448002CE6D191
:1034E800012303FA01F11143C0F890181846DFE7E9
:1034F800E0610D009C610D00B4610D00F8B5044653
:1035080003F0A4F904F5CC7003F014FE04F12C00C8
:1035180003F004FC04F1480002F068FB04F598701D
:10352800FCF7B2FF0A2104F5E87003F0CFFA04F5BE
:10353800F47001F011FE002604F6080304F5E662B3
:1035480004F628050020002143F8046BAB42E2E8AA
:103558000201F9D100204FF0000CC4F8740804F6F9
:10356800240304F5ED6104F6770204F507650026E7
:10357800002743F804CFAB42E1E9026702F8010FE4
:10358800F7D1C4F88C08C4F8900804F6940304F63C
:10359800A205012000214FF6FF72A3F84400A3F80A
:1035A800521023F8022B9D42F7D1A4F8A228A4F8C0
:1035B800A428A4F8A628A4F8A828A4F8AA28A4F857
:1035C800AC28A4F8AE28A4F8B02804F50B6304F6D8
:1035D800D6014FF6FF7223F8022F8B42FBD120460B
:1035E800F8BD00BF10B44C1E11461A460A2C07D865
:1035F800DFE804F00A0E1206150606061A1F240054
:103608006FF0630010BC704710BC483002F08CBBF0
:1036180010BC2C3003F094BB10BC03F023B910BCD1
:1036280000F5CC7003F0A0BD10BC00F59870FCF755
:1036380073BF10BC00F5E87003F054BA10BC00F575
:10364800F47001F0EFBD00BF2DE9F04F0023A5B0E5
:103658004FF000088A46C0F89038052104468DF8D6
:10366800283093468DF829308DF82A30CDF82C80F3
:10367800CDF83080CDF83480CDF87880CDF87C80D6
:10368800CDF88080CDF88480CDF88880CDF88C8006
:10369800CDF83880CDF83C80FFF7F6FE002800F022
:1036A800B3805046FDF760FE0146D4F82408FEF7C3
:1036B80043F8002840F04F8303212046B54D4FF0D2
:1036C800FF366FF00047FFF7DFFE002840F0A880C4
:1036D80001212046FFF7D8FE50B15046FDF744FEC1
:1036E8000146D4F82408FEF727F8002840F0F681B0
:1036F80002212046FFF7C8FE50B15046FDF734FEC0
:103708000146D4F82408FEF717F8002840F029826B
:1037180009212046FFF7B8FE50B15046FDF724FEB8
:103728000146D4F82408FEF707F8002840F0B982CB
:1037380000260A212046FFF7A7FE50B15046FDF7A4
:1037480013FE0146D4F82408FDF7F6FF002840F0E0
:10375800D8820B212046FFF797FE002840F01C81F5
:103768006B7904EB43014FF6FF72B1F8B018914240
:1037780003F1FF3C04D0D4F87428570700F1EB801C
:10378800AB7904EB43014FF6FF72B1F8B0189142E0
:1037980003F1FF3C04D0D4F87428D60700F1BC80AC
:1037A800EB7904EB43014FF6FF72B1F8B018914280
:1037B80003F1FF3C04D0D4F87428900700F18D8001
:1037C8002B7A04EB43014FF6FF72B1F8B01891421F
:1037D80003F1FF3C03D0D4F8742811075ED46B7E44
:1037E80004EB43014FF6FF72B1F8B018914203F1B0
:1037F800FF3503D0D4F8742812022CD40023C4F85F
:10380800743825B0BDE8F08F624D4FF0FF366FF089
:10381800004703212046FFF737FE00283FF458AF42
:103828005046FDF7A1FD0146D4F82408FDF784FFB2
:1038380000283FF44DAF0DA90CAACDE901210BAB2F
:103848000093D4F80C38D4F81028D4F8141820466B
:1038580003F024F83CE704F5ED62D2E9006703F2CF
:103868000922ED33D4F8241844F8221004EBC303DA
:10387800C3E90067002075F0E9FAFDF7B5FF2544B4
:1038880085F87808D4F88C3843F00073C4F88C387D
:103898000023C4F8743825B0BDE8F08F04F5E96258
:1038A800D2E9006703F20922ED33D4F8141844F87A
:1038B800221004EBC303C3E90067002004EB0C06E5
:1038C80075F0C4FAFDF790FF86F87808D4F88C38BC
:1038D80043F48073C4F88C3881E704F5E762D2E9D1
:1038E800006703F20922ED33D4F80C1844F82210CB
:1038F80004EBC303C3E90067002004EB0C0675F072
:10390800A5FAFDF771FF86F87808D4F88C3843F0EB
:103918008003C4F88C3853E704F5E662D2E90067FF
:1039280003F20922ED33D4F8081844F8221004EB06
:10393800C303C3E90067002004EB0C0675F086FAA0
:10394800FDF752FF86F87808D4F88C3843F0400326
:10395800C4F88C3824E704F5E862D2E9006703F27A
:103968000922ED33D4F8101844F8221004EBC303ED
:10397800C3E90067002004EB0C0675F067FAFDF751
:1039880033FF86F87808D4F88C3843F02003C4F85D
:103998008C38F5E688620D000DF12B061AA8D4F8CC
:1039A8000818D4F80C28D4F810380093CDE9030689
:1039B80002910192D4F81418D4F824285B4604F52F
:1039C800F47004F5E966D6E9006701F0B3FC0BF181
:1039D800FF30C0B2FDF7C8FC0146D4F82408FDF753
:1039E800ABFE00283FF4BCAEB4F8CE284FF6FF7308
:1039F8009A4217D06B7DDDF868C09DF82B1003F252
:103A0800092003F1ED02234404EBC20244F820C06C
:103A1800C2E9006783F87718D4F88C3843F40013A8
:103A2800C4F88C38B4F8D0284FF6FF739A4217D0F0
:103A3800AB7DDDF86CC09DF82B1003F2092003F173
:103A4800ED02234404EBC20244F820C0C2E9006737
:103A580083F87718D4F88C3843F48003C4F88C388A
:103A6800B4F8D2284FF6FF739A4217D0EB7DDDF8F1
:103A780070C09DF82B1003F2092003F1ED022344D6
:103A880004EBC20244F820C0C2E9006783F8771843
:103A9800D4F88C3843F40003C4F88C38B4F8D4282C
:103AA8004FF6FF739A423FF45BAE2B7EDDF874C08D
:103AB8009DF82B1003F2092003F1ED02234404EBD7
:103AC800C20244F820C0C2E9006783F87718D4F826
:103AD8008C3843F08073C4F88C3841E6D4F8203829
:103AE800D4F81C0804930DF1380C1EAA0021CDE966
:103AF800052CFDF721FE9DF82AC09DF828E09DF8C9
:103B08002980CDF808C0B0FA80F004F1480C4009CB
:103B1800CDF800E00D9B0C9A0B990390CDF804802A
:103B2800604602F081F96B7CDDF838C003F20921A8
:103B380003F1ED0204EBC202013B44F821C000206E
:103B4800C2E9006704EB030875F080F9FDF74CFE45
:103B580088F87808D4F88C3843F40033C4F88C38E3
:103B6800C6E50DF1600C16A814A912AA10ABCDE990
:103B7800030CCDE9012100930E990F9B1EAA04F1B5
:103B88002C0003F0F9F82B78DDF840C0119803F207
:103B9800092103F1ED0204EBC20244F821C0013B04
:103BA800C2E9006704EB030875F050F9FDF71CFE45
:103BB80088F87808D4F88C286B781299139842F012
:103BC800010203F2092CC4F88C2803F1ED0204EB7E
:103BD800C20244F82C10013BC2E9006704EB030859
:103BE80075F034F9FDF700FE88F87808D4F88C28C9
:103BF800AB781499159842F0020203F2092CC4F824
:103C08008C2803F1ED0204EBC20244F82C10013BAE
:103C1800C2E9006704EB030875F018F9FDF7E4FD45
:103C280088F87808D4F88C28EB781699179842F019
:103C3800040203F2092CC4F88C2803F1ED0204EB0A
:103C4800C20244F82C10013BC2E9006704EB0308E8
:103C580075F0FCF8FDF7C8FD88F87808D4F88C28CA
:103C68002B7D1899199842F0080203F2092CC4F820
:103C78008C2803F1ED0204EBC202013B44F82C103E
:103C8800C2E9006704EB030875F0E0F8FDF7ACFD46
:103C980088F87808D4F88C3843F48013C4F88C3842
:103CA80036E504F5E863D3E90089B4F84A10D4F896
:103CB80018380393CDE90089029132463B46D4F87F
:103CC800101804F59870FCF771FC6B7B03F209215E
:103CD80003F1ED0204EBC2020646013B44F8216001
:103CE8000020C2E90089E71875F0B0F8FDF77CFDFF
:103CF80087F87808D4F88C3843F40053C4F88C3823
:103D080017E53246D4F80C38D4F8101804F5E866EC
:103D180004F5E870D6E9006702F000FFAB7B03F218
:103D2800092C03F1ED01024604EBC101013B44F803
:103D38002C200020C1E900670B92E61875F086F880
:103D4800FDF752FD86F87808D4F88C3843F48043A0
:103D5800C4F88C38FDE404F5E963D3E900670DF194
:103D68002A010FAD0DF12900039102950AA9264DEC
:103D7800CDE900103B46324604F5CC7003F01CFA3E
:103D880095F80B909DF8280009F209220992FDF791
:103D9800E7FA099A09F1ED0304EBC30344F822009A
:103DA800C3E90067404675F051F8FDF71DFD09F1BC
:103DB800FF39A14489F87808D4F88C389DF829008F
:103DC80095F80C9043F40063C4F88C38FDF7C8FAF2
:103DD80009F2092209F1ED03014604EBC30344F893
:103DE80022104046C3E9006775F030F8FDF7FCFC87
:103DF80009F1FF39A14489F87808D4F88C3843F4DC
:103E08008053C4F88C3804E588620D0010B44C1E49
:103E180011461A469DF804300A2C07D8DFE804F04A
:103E2800090D110614060606191E2300002010BCF1
:103E3800704710BC483002F0DFBA10BC2C3003F0D9
:103E48007FB810BC02F080BD10BC00F5CC7003F048
:103E580047BA10BC00F59870FCF72EBC10BC00F5F2
:103E6800E87002F09BBE10BC00F5F47001F0EEBBE8
:103E780010B44C1E11461A469DF804300A2C07D877
:103E8800DFE804F0090D110614060606191E2300C2
:103E9800002010BC704710BC483002F04BBB10BC6F
:103EA8002C3003F07FB810BC02F080BD10BC00F5C8
:103EB800CC7003F061BA10BC00F59870FCF75CBCDC
:103EC80010BC00F5E87002F09BBE10BC00F5F47061
:103ED80001F064BC30B4D0F8744800F5ED65D0F852
:103EE80024080860D5E90001C4F3C054C2E9000100
:103EF8001C7030BC704700BFF0B401390F4C049DF2
:103F0800645C04F2092C04F1ED0650F82C7017607B
:103F180000EBC606D6E90067C3E90067044401223E
:103F280094F877382B70D0F88C3802FA01F123EA2C
:103F38000103F0BCC0F88C38704700BF88620D00E0
:103F48002DE9F04F8446374E374CDFF8E8A083B0B0
:103F5800002140F217774FF6FF7E04E001310B296C
:103F680006F104065AD047FA01F3DB07F6D52F4BC2
:103F780013F801800CEB4808B8F89298F145EDD099
:103F880000231D460120019600FA03F23A4210D0A0
:103F9800274E36F911B01BEA020F0AD0234AD25C29
:103FA8000CEB4202B2F89228724502D0954238BF13
:103FB800154601330B2BE7D1019E00234FF0010B6F
:103FC8000BFA03F222420DD0306802420AD013F8ED
:103FD8000A200CEB4202B2F8A028724502D09542A2
:103FE80038BF15460133182BEAD1002DB6D0B9FBDE
:103FF800F5F205FB12991FFA89F392B23BB105F06D
:10400800010000EB5505AB42A4BF013292B2013169
:104018000B29A8F8D62806F10406A4D103B0BDE8F8
:10402800F08F00BFB4610D000F20E000E0610D00CB
:104038009C610D00A4620D0030B400F6940300F6F4
:10404800A205012400214FF6FF72A3F84440A3F80B
:10405800521023F8022B9D42F7D1A0F8A228A0F80D
:10406800A428A0F8A628A0F8A828A0F8AA28A0F8AC
:10407800AC28A0F8AE28A0F8B02800F50B6300F62D
:10408800D6024FF6FF7123F8021F9342FBD130BCD2
:10409800704700BF10B44C1E11461A460A2C07D8A8
:1040A800DFE804F00A0E1206150606061A1F240099
:1040B8006FF0630010BC704710BC483002F052BB70
:1040C80010BC2C3003F000B810BC02F0A1BC10BC2E
:1040D80000F5CC7003F0F0B910BC00F59870FCF74F
:1040E8007FBB10BC00F5E87002F0BCBD10BC00F549
:1040F800F47001F0B9BB00BF2DE9700F0139144C01
:104108009DF82060645C00EBC40505F5E565D5E91C
:1041180000AB9B4508BF92459046994604F1FF3491
:1041280011D004F20224079B40F82430C5E9008925
:104138000122D0F8743802FA01F10B43BDE8700F80
:10414800C0F874387047002EEBD1BDE8700F704787
:10415800A4620D004B1EDAB20A2A00D97047184A29
:10416800114411F8012C00EB4202B2F89218092B05
:10417800F4D801A252F823F0B1410000B741000081
:10418800BD41000065410000C141000065410000DB
:10419800654100006541000065410000A94100003B
:1041A80000F5E87002F07ABD483002F075BA2C309C
:1041B80002F05CBF02F048BC00F5CC7003F04AB9CD
:1041C800E0610D00204B0139F0B55B5C1F4FDFF853
:1041D80088E000EB43038446A3F8B02801260023B7
:1041E80040F2177506FA03F42C420DD037F9110086
:1041F800204209D01EF803000CEB4000B0F89248AA
:10420800944288BFA0F8922801330B2BEAD1104EB4
:104218001048DFF848E00023012505FA03F434428A
:104228000DD050F821703C4209D01EF803400CEB29
:104238004404B4F8A078974288BFA4F8A0280133B2
:10424800182BEAD1F0BD00BF88620D00EC610D00AB
:104258000F20E00020620D00E0610D00A4620D0057
:1042680030B4D0F8744800F5E965D0F8140808604F
:10427800D5E90001C4F3C004C2E900011C7030BCD8
:10428800704700BF4B1E0A2B10D8124A114411F870
:10429800012C00EB4202B2F89218092B09D8DFE88A
:1042A80003F0090C0F081108080808154FF6FF71EC
:1042B800F3E77047483002F0EFB92C3002F0D6BE71
:1042C80002F0C2BB00F5CC7003F0C4B800F5E8708A
:1042D80002F0E4BCE0610D0030B4D0F8744800F599
:1042E800EB65D0F81C080860D5E90001C4F3405418
:1042F800C2E900011C7030BC704700BFF0B50F4622
:10430800096803464C1E00F10B0685B0234410468D
:104318000E4401AC13F8015F04F8015BB342F9D114
:1043280001A90C2276F0FEFE3B680C333B6005B019
:10433800F0BD00BFF0B51C461B680C33934285B036
:1043480003D90132226005B0F0BD0C220F460146A8
:1043580001A876F0E7FE01AB0022BD18206813F82B
:10436800016B2E5401320C2AF7D123680C332360D9
:1043780005B0F0BDF0B50B6883B004461C440F4689
:1043880010460DF1FF330DF1070614F8015B03F831
:10439800015FB342F9D10822694676F0C3FE3B6853
:1043A80008333B6003B0F0BD70B51C461B6808338A
:1043B800934284B003D90132226004B070BD082250
:1043C8000D460146684676F0ADFE08220DEB020068
:1043D800694676F0A7FE0DF107030022A8182168A8
:1043E80013F8016F46540132082AF7D123680833BD
:1043F800236004B070BD00BF10B50B68C21882B04E
:104408000C465278C35C8DF8052001A902220DF1F3
:1044180006008DF8043076F085FE2368BDF80600A6
:104428000233236002B010BD30B51C461B6885B04E
:1044380002339342ADF8060003D90132226005B079
:1044480030BD0D4602220DF1060103A876F06AFE82
:1044580023689DF80C20EA5421689DF80D30294402
:104468004B7023680233236005B030BD30B50C466D
:104478000968451883B0034610466A785B5C8DF876
:10448800052001A902228DF8043076F04BFE23683E
:104498000233236003B030BD30B51C461B680233BD
:1044A800934283B003D90132226003B030BD027851
:1044B80043788DF800200D460222694601A88DF840
:1044C800013076F02FFE23689DF80420EA54216815
:1044D8009DF8053029444B7023680233236003B0EC
:1044E80030BD00BF30B50A6883B08318825C8DF890
:1044F800042058789D788DF805000C460422DB7856
:104508008DF807300DEB020168468DF8065076F0FD
:1045180009FE236800980433236003B030BD00BF50
:1045280030B51C461B6885B004339342019003D90B
:104538000132226005B030BD04220D4603A80DEB00
:10454800020176F0EFFD23689DF80C20EA542368F9
:104558009DF80D009DF80E109DF80F202B44587003
:1045680023682B44997021680D44EA70236804334A
:10457800236005B030BD00BF10B50B6882B00C4693
:10458800C35C8DF8073001220DF107010DF106001B
:1045980076F0C8FD23689DF806000133236002B059
:1045A80010BD00BF30B51C461B6883B05D1C95422A
:1045B8008DF8070003D90132226003B030BDC81856
:1045C80001220DF1070176F0ADFD23680133236068
:1045D80003B030BD30B50A6885B00D460DF107034C
:1045E80010440DF10F0410F8012B03F8012FA3421A
:1045F800F9D108220DEB0201684676F093FD2B688D
:10460800DDE9000108332B6005B030BD70B584B01A
:10461800CDE90001089C266808369E4203D901337B
:10462800236004B070BD154608220DEB02006946F0
:1046380076F078FD0DF107020023E818216812F8DA
:10464800016F46540133082BF7D1236808332360E0
:1046580004B070BDF0B50B688BB00446013B1C4438
:104668000F4610466B460AAE14F8015F03F8015B6B
:10467800B342F9D16946282276F054FD3B682833C5
:104688003B600BB0F0BD00BF30B41C68651C9542A0
:104698009CBF08551A68013230BC1A60704700BFC9
:1046A800F0B50B6887B00446013B1C440F46104622
:1046B8006B4606AE14F8015F03F8015BB342F9D10B
:1046C8006946182276F02EFD3B6818333B6007B028
:1046D800F0BD00BF70B51D461B68283393428AB0F1
:1046E80003D901322A600AB070BD6C4628220E46F2
:1046F8000146204676F016FDC4F101030DF1FF32A4
:104708000DF127012C689818204412F8014F3454F1
:104718008A42F7D12B6828332B600AB070BD00BFDE
:10472800F0B50B68BBB00446013B1C440F4610466D
:1047380001AB3AAE14F8015F03F8015BB342F9D15B
:1047480001A9E42276F0EEFC3B68E4333B603BB021
:10475800F0BD00BF70B51D461B681033934288B08A
:1047680003D901322A6008B070BD10220DEB020493
:104778000E460146684676F0D5FC6946102220466A
:1047880076F0D0FCC4F101000DF10F020DF11F010C
:104798002B6884181C4412F8013F33558A42F7D11C
:1047A8002B6810332B6008B070BD00BFF0B50B68E4
:1047B8008BB00446013B1C440F4610466B460DF176
:1047C800260614F8015F03F8015BB342F9D1694684
:1047D800262276F0A7FC3B6826333B600BB0F0BD81
:1047E80030B51C461B680433934283B003D90132A9
:1047F800226003B030BD0288ADF8002004220D46C7
:104808004388ADF8023069460DEB020076F08AFC69
:1048180023689DF80420EA5423689DF805009DF854
:1048280006109DF807202B44587023682B44997074
:1048380021680D44EA7023680433236003B030BD57
:10484800F0B50B6887B00446013B1C440F46104680
:1048580001AB06AE14F8015F03F8015BB342F9D16E
:1048680001A9142276F05EFC3B6814333B6007B064
:10487800F0BD00BF70B51D461B68143393428AB063
:1048880003D901322A600AB070BD14220DEB02046C
:104898000E460146684676F045FC694614222046D5
:1048A80076F040FCC4F101030DF113020DF127016C
:1048B8002C689818204412F8014F34548A42F7D1D2
:1048C8002B6814332B600AB070BD00BFF0B50B68BD
:1048D80085B00446013B1C440F4610466B4604AEA7
:1048E80014F8015F03F8015BB342F9D1694610225D
:1048F80076F018FC3B6810333B6005B0F0BD00BF94
:1049080030B51C461B6883B05D1C95428DF80700C6
:1049180003D90132226003B030BDC81801220DF15D
:10492800070176F0FFFB23680133236003B030BD35
:1049380070B503460D6882B00C46411910465A5DA1
:104948008DF8042004224E788D78CB788DF80730C6
:104958000DEB02018DF805608DF8065076F0E2FB4C
:1049680023680433236002B070BD00BF70B51C46D5
:104978001B680833934282B003D90132226002B027
:1049880070BD08220D460146684676F0CBFB0DF156
:10499800FF330022A818216813F8016F465401322A
:1049A800082AF7D123680833236002B070BD00BF1E
:1049B800F0B50B6887B00446013B1C440F4610460F
:1049C80001AB06AE14F8015F03F8015BB342F9D1FD
:1049D80001A9142276F0A6FB3B6814333B6007B0AC
:1049E800F0BD00BF70B51C461B680333934282B00C
:1049F80003D90132226002B070BD0278467883780C
:104A08008DF800200D460322694601A88DF8023072
:104A18008DF8016076F086FB23689DF80420EA543F
:104A280023689DF805109DF806202B4459702168CD
:104A380029448A7023680333236002B070BD00BF25
:104A480010B50B6882B00C46C35C8DF807300122A4
:104A58000DF107010DF1060076F064FB23689DF95E
:104A680006000133236002B010BD00BF70B51D46BB
:104A78001B681033934284B003D901322A6004B012
:104A880070BD6C4610220E460146204676F04AFB61
:104A9800C4F101000DF1FF320DF10F012B688418EC
:104AA8001C4412F8013F33558A42F7D12B68103362
:104AB8002B6004B070BD00BF30B50D68034683B0ED
:104AC8000C46411910465A5D8DF804204D788B78B4
:104AD8008DF80630032201A98DF8055076F022FBE7
:104AE80023680333236003B030BD00BF70B51D4693
:104AF8001B6803F502739342ADF5027D04D90132B8
:104B08002A600DF5027D70BD4FF402726C460E46A8
:104B180001460F4876F006FB0D494FF40272204615
:104B280076F000FBC4F101030DF1FF320DF207210D
:104B38002C689818204412F8014F34548A42F7D14F
:104B48002B6803F502732B600DF5027D70BD00BF65
:104B580000CD0320F0B50B68ADF5037D0446013B9D
:104B68001C440F4610466B4682AE14F8015F03F8EA
:104B7800015BB342F9D169464FF4027276F0D2FA7A
:104B88003B6803F502733B600DF5037DF0BD00BF84
:104B980070B51D461B6803F5C8739342E4B003D98A
:104BA80001322A6064B070BD4FF4C8726C460E467C
:104BB80001460E4876F0B6FA0C494FF4C872204602
:104BC80076F0B0FAC4F101030DF1FF320DF28F1146
:104BD8002C689818204412F8014F34548A42F7D1AF
:104BE8002B6803F5C8732B6064B070BD08CF032031
:104BF800F0B50B68E5B00446013B1C440F4610466F
:104C08006B4664AE14F8015F03F8015BB342F9D157
:104C180069464FF4C87276F085FA3B6803F5C873A5
:104C28003B6065B0F0BD00BF70B51D461B68A03382
:104C38009342D0B003D901322A6050B070BDA0228F
:104C48000DEB02040E460146684676F06BFA69469B
:104C5800A022204676F066FAC4F101030DF19F0206
:104C68000DF23F112C689818204412F8014F345463
:104C78008A42F7D12B68A0332B6050B070BD00BFBB
:104C8800F0B50B68A9B00446013B1C440F4610461A
:104C98006B4628AE14F8015F03F8015BB342F9D103
:104CA8006946A02276F03EFA3B68A0333B6029B003
:104CB800F0BD00BF30B51C461B680333934283B078
:104CC80003D90132226003B030BD0D4603220146EC
:104CD80001A876F027FA23689DF80420EA5423688F
:104CE8009DF805109DF806202B4459702168294429
:104CF8008A7023680333236003B030BDF0B50B68B6
:104D08008FB00446013B1C440F46104601AB0EAE63
:104D180014F8015F03F8015BB342F9D101A9342209
:104D280076F000FA3B6834333B600FB0F0BD00BF4B
:104D380070B51D461B68343393428EB003D90132D7
:104D48002A600EB070BD01AC34220E4601462046E2
:104D580076F0E8F9C4F101030DF103020DF1370112
:104D68002C689818204412F8014F34548A42F7D11D
:104D78002B6834332B600EB070BD00BF70B51D4674
:104D88001B68183393428CB003D901322A600CB0E7
:104D980070BD18220DEB02040E460146684676F0F7
:104DA800C1F969461822204676F0BCF9C4F101031E
:104DB8000DF117020DF12F012C689818204412F8F4
:104DC800014F34548A42F7D12B6818332B600CB04A
:104DD80070BD00BF70B51D461B68E4339342F2B046
:104DE80003D901322A6072B070BDE4220DEB0204CF
:104DF8000E460146684676F095F96946E422204653
:104E080076F090F9C4F101030DF1E3020DF2C71138
:104E18002C689818204412F8014F34548A42F7D16C
:104E28002B68E4332B6072B070BD00BF70B51D46AF
:104E38001B68263393428AB003D901322A600AB02C
:104E480070BD6C4626220E460146204676F06AF969
:104E5800C4F101030DF1FF320DF125012C689818FA
:104E6800204412F8014F34548A42F7D12B68263374
:104E78002B600AB070BD00BF70B51D461B681433A7
:104E880093428AB003D901322A600AB070BD142255
:104E98000DEB02040E460146684676F043F9694672
:104EA8001422204676F03EF9C4F101030DF11302F5
:104EB8000DF127012C689818204412F8014F34543A
:104EC8008A42F7D12B6814332B600AB070BD00BF3B
:104ED8002DE9F04F8BB004460D46DDE91401174665
:104EE800FCF7F0F80444169E94F83930012B0AD0E8
:104EF800022B42D083B329463046282276F012F995
:104F08000BB0BDE8F08F28222946304676F00AF922
:104F1800002FF5D02C464FF040494FF07E554FF00A
:104F2800804804EB8707043E54F8040B4946FCF715
:104F38006FFA74F0DBFA2946FCF762F9014640463D
:104F4800FCF71AFB2946FCF759F9A74246F8040F63
:104F5800EAD10BB0BDE8F08F2F1F4FF00008043ED8
:104F6800243557F8041F404676F08EF8BD4246F8BF
:104F7800040FF6D10BB0BDE8F08F29466846282209
:104F880076F0D0F8DDF800A0E8466C4655460DF1FD
:104F9800240954F804BF29465846FCF7F5FB00B12C
:104FA8005D464C45F5D18FB10DEB87076C4601E0A6
:104FB800D4F800A029465046FCF720F974F096FA78
:104FC80044F8040BBC42F3D1DDF800A06D4654460A
:104FD80055F8041F2046FCF713F94D450446F7D150
:104FE800351F243601E058F804AF50462146FCF737
:104FF800C3FA45F8040FAE42F5D10BB0BDE8F08F07
:105008002DE9F04F90F83C00012885B00D46164672
:105018001C4609D0022845D068B31846102276F0FD
:1050280081F805B0BDE8F08F1022184676F07AF8BE
:10503800002EF6D04FF040494FF07E574FF0804891
:1050480005EB8606043C55F8040B4946FCF7E0F9E5
:1050580074F04CFA3946FCF7D3F801464046FCF7A1
:105068008BFA3946FCF7CAF8AE4244F8040FEAD185
:1050780005B0BDE8F08F0968002076F005F82060DB
:105088006968002076F000F86060A968002075F073
:10509800FBFFA060E968002075F0F6FFE06005B04E
:1050A800BDE8F08F6846102276F03CF8009FDDF8E6
:1050B80004A038465146FCF749FB002849D1B846B8
:1050C800DDF8089041464846FCF75EFB00B1C8464B
:1050D800DDF80CB041465846FCF756FB00B1D846FF
:1050E800AEB16D4605EB860600E02F6841463846AE
:1050F800FCF784F874F0FAF945F8040BB542F4D1DA
:10510800009FDDF804A0DDF80890DDF80CB05146EA
:105118003846FCF775F84946FCF772F85946FCF72B
:105128006FF8054629463846FCF726FA29462060D6
:105138005046FCF721FA294660604846FCF71CFAFD
:105148002946A0605846FCF717FAE06005B0BDE8AC
:10515800F08FD046B4E700BF034630B4002240F2D7
:1051680001110B2502244187A0F8442580F8462523
:10517800057003F83C4F002100F1640243F8041F56
:105188009342FBD1002200F18C0143F8042F8B429B
:10519800FBD10346C0F89020C0F89420C0F89820AE
:1051A8004FF07E5143F89C2F00F5297243F8041FF5
:1051B8009342FBD14FF07E5100F2344243F8041F72
:1051C8009342FBD14FF07E5100F2D44243F8041FC2
:1051D8009342FBD140F60A220423A0F8D82480F891
:1051E800DA34002100F59B6200F20C5342F8041FE8
:1051F8009342FBD14FF07E5100F5A86243F8041F9B
:105208009342FBD10022034600F1280143F8042F02
:105218008B42FBD14FF4807330BCC262026342639D
:10522800038770472DE9F04786B004AB05AE044606
:105238000078CDE900360DF10F030D4602F096F91E
:105248009DF90F0008BB4FF0010A04F5A26904F2AA
:10525800DC4804F59B675FFA8AF3013B0B2B61D8A6
:10526800DFE803F059524B443D362F231D2916061B
:1052780031462846FFF780F984F845050AF1010A06
:10528800BAF10E0FE7D19DF90F0006B0BDE8F0871F
:1052980031462846FFF770F984F84405EEE74246A0
:1052A80031462846FFF72AFDE8E73A4631462846C0
:1052B800FFF702FCE2E74A4631462846FFF71EFDA3
:1052C800DCE704F5876231462846FFF7D9FCD5E7C5
:1052D80004F52A7231462846FFF78AFCCEE704F126
:1052E800A00231462846FFF735FCC7E704F19002D3
:1052F80031462846FFF7EAFAC0E704F1680231466A
:105308002846FFF7A7F9B9E704F1400231462846D5
:10531800FFF7A0F9B2E704F13A0231462846FFF751
:10532800CBFBABE731462846FFF726F984F846055C
:10533800A4E700BF2DE9F04FBBB00446479D1046D7
:10534800489A00264FF000082E606E60AE60EE604E
:1053580082F800801E460F4673F078FDFCF744FA89
:1053680094F839300130C0B223B101285AD03BB08B
:10537800BDE8F08F94F838300133DBB2711CC9B244
:10538800B3FBF1F201FB1233DBB2984211D00021DA
:10539800234604F1280243F8041F9342FBD100235B
:1053A8004FF48072E3622363636322873BB0BDE8F6
:1053B800F08FB04284F8380044F82070D7D12DAE71
:1053C800002233460DF1E80943F8042B9945FBD137
:1053D8002822211D2DA875F0A5FE216BE26A636BBA
:1053E80037914FF0000A3892399320AF04F20C58E5
:1053F8000DE058F8341C3068FBF700FF5946FCF7FD
:10540800BBF838600436B14507F104071FD058F8D7
:1054180004BF51465846FCF78FF90028E9D0336895
:105428003B60EFE794F8463584F839800BB1449B2C
:10543800E36294F844350BB1459B236394F84535F2
:105448001BB1469B6363012398E7012396E794F811
:10545800D86494F8D93404930CA894F8DA340696EE
:10546800282204F14001059375F05CFE16B3069BF3
:10547800079404EB83030DF13009A0462DAF9A463B
:1054880059F8046B20ACC346DBF8A01054F8040BA1
:10549800FBF7BEFF01463046FBF7B2FEA7420BF111
:1054A800280B0646F0D108F10408C24549F8040C57
:1054B800E6D1079C644B002216A9CDE9002302918E
:1054C800069A0CA92046FFF703FD049B002B00F069
:1054D8008280282204F168012DA875F023FE069B1E
:1054E8004795CDE9064416A900220DF1B409A04656
:1054F80001EB830716461D46ADB1D9F800400DF102
:10550800580AC346DBF8A8125AF8040BFBF780FFC9
:1055180001462046FBF774FE57450BF1280B04465D
:10552800F0D1C9F80000049B0136B34209F104091F
:1055380008F10408E0D1DDE9068400224FF0804339
:10554800CDE900230CA908AB1E46049A0291204617
:105558002DA90793479DFFF7BBFC3046102204F1A5
:10556800900175F0DFFD059B1BB3049B079F049416
:105578000CAA02EB8309059B04EB83039A4657F8B0
:10558800046B0CACC346DBF8381454F8040BFBF777
:105598003FFF01463046FBF733FEA1450BF1100BE8
:1055A8000646F0D108F10408C24547F8040CE6D1D4
:1055B800049C059A07992B462046FFF721FD489A37
:1055C800032313700021234604F1280243F8041F23
:1055D8009A42FBD1E3E608AB1846102204F1900189
:1055E8000793984675F09EFD059B002BE1D0069B1E
:1055F800DDF81090479516A9264601EB8307049419
:105608001D46ADB1D8F800400DF1580AB346DBF895
:1056180038145AF8040BFBF7FBFE01462046FBF74B
:10562800EFFD57450BF1100B0446F0D1C8F8000008
:10563800059B09F101094B4508F1040806F1040628
:10564800DFD1049C479DB4E70000F03F2DE9F04707
:1056580084B00646174600780D240DF107020D4662
:105668008DF8074001F0B0FF9DF807800390B8F16E
:10567800000F2AD0012406F5A26A06F2DC49E3B23B
:10568800013B0C2B0FD8DFE803F070688078605876
:105698005048413A3214070096F8460503AB3A469B
:1056A8002946FEF77FFFA04504F101030CD01C46F4
:1056B800E5E703AB96F845053A462946FEF772FF3B
:1056C800A04504F10103F2D10398ADF80A000222C3
:1056D8000DF10A0102A875F025FD9DF808209DF836
:1056E800093003982A706B7004B0BDE8F08796F80B
:1056F800440503AB3A462946FEF754FFD3E703AB0C
:105708003A4629465046FFF713FBCCE703AB3A4627
:1057180029464846FFF70CFBC5E703AB3A4629463E
:1057280006F59B60FFF7C6FABDE703AB3A46294684
:1057380006F58760FFF778FAB5E703AB3A462946DE
:1057480006F52A70FFF724FAADE703AB3A46294677
:1057580006F1A000FFF7CAF9A5E703AB3A462946C8
:1057680006F14000FEF7B6FF9DE703AB3A4629462F
:1057780006F13A00FFF736F995E703AB3A462946B2
:1057880006F19000FFF772F98DE703AB3A46294618
:1057980006F16800FEF79EFF85E700BF2DE9F0439C
:1057A80085B006469046007806240DF107020D469E
:1057B8008DF8074001F008FF9DF8077003901FB3AC
:1057C800012406F10409E3B2013B052B0AD8DFE8FE
:1057D80003F02D0F3B344303706B03AB424629465D
:1057E800FEF79EFEA74204F101030CD01C46EAE72F
:1057F80003AB96F8380042462946FEF7D3FEA74287
:1058080004F10103F2D10398ADF80A0002220DF168
:105818000A0102A875F086FC9DF808209DF8093059
:1058280003982A706B7005B0BDE8F08303AB42465D
:1058380029464846FEF74EFFD4E7F06A03AB4246D6
:105848002946FEF76DFECDE796F8390003AB4246D0
:105858002946FEF7A7FEC5E7306B03AB424629464B
:10586800FEF75EFEBEE700BF2DE9F04186B004AB4F
:1058780005AF05460078CDE900370DF10F030E4658
:1058880001F074FE9DF90F00A8B9012405F1040880
:10589800E3B2013B042B2BD8DFE803F0241D1610DC
:1058A800030039463046FEF71DFE28630134072CF5
:1058B800EED19DF90F0006B0BDE8F08139463046BB
:1058C800FEF710FEE862F1E739463046FEF754FE6F
:1058D80085F83900EAE739463046FEF74DFE85F887
:1058E8003800E3E7424639463046FEF7B3FEDDE7C7
:1058F80039463046FEF7F6FD6863D7E7F8B500EBA2
:1059080083040D46E768002138461646FBF714FF66
:10591800F8B160683146FBF771FC002175F0B4FB03
:10592800E168034630461C46FBF768FC002175F029
:10593800ABFB0146204675F0CBFB0146FBF760FC4C
:105948002946FBF719FEBDE8F8404FF07E5175F087
:10595800BFBB60683946FBF751FC294675F094FBDC
:105968000546D6E72DE9F04F85B005469DF83C4041
:10597800039440689DF84040029488465F4901932B
:1059880016461C46FBF744FD9DF838B08246002CAD
:1059980060D10BF1030355F82310FBF731FC346891
:1059A800074621464046FBF729FC04466888FBF772
:1059B800D7FC5349FBF7E0FD05EB8B09034651493A
:1059C800D9F818000093FBF7B7FE002868D14E49B4
:1059D8005046FBF71DFD5146FBF712FC002180469F
:1059E8002046FBF7D1FE002844D0BBF1010F09BFC8
:1059F800039BDFF824A105EB8303D3F828A0029BBF
:105A080033B941462046FBF7BFFE08B1DFF808A1CD
:105A180068683E49FBF7FCFC5146FBF7ADFD009971
:105A2800FBF7F6FC054601462046FBF7ADFEF8B944
:105A380031682046FBF7E4FB39460446FBF786FE4F
:105A480000B92746019B0BB107F10047376005B045
:105A5800BDE8F08F34680BF1010304F100443460B1
:105A680055F82310FBF7CAFB08F10048074698E7EA
:105A78002C46DDE7029B7BB3D9F8CC10009B03F1E1
:105A88000040FBF779FD73F031FD01464FF07E5081
:105A9800FBF7B4FB01462046FBF7BAFC0446C7E710
:105AA800D9F804004146FBF7A9FB002175F0ECFA90
:105AB80001464FF07E50FBF7A1FB0146FBF7A8FC1F
:105AC8004FF07D51FBF7A4FC1149FBF7A1FC1149EC
